:100000000C948C030C94F2140C94CB140C94B40345
:100010000C94B4030C94B4030C9471150C94B403B5
:100020000C94B4030C94B4030C94B4030C94B40374
:100030000C94B4030C94B4030C94B4030C94B40364
:100040000C9481140C94B4030C943F150C94191562
:100050000C94B4030C94B4030C94B4030C94B40344
:100060000C94B4030C94B40300407A10F35A00A02B
:10007000724E18090010A5D4E80000E87648170071
:1000800000E40B54020000CA9A3B000000E1F505B1
:10009000000080969800000040420F000000A086FB
:1000A00001000000102700000000E803000000002D
:1000B0006400000000000A000000000001000000D1
:1000C00000002C76D888DC674F0823DFC1DFAE59EB
:1000D000E1B1B796E5E3E453C63AE651997696E87E
:1000E000E6C28426EB898C9B62ED407C6FFCEFBC02
:1000F0009C9F40F2BAA56FA5F490055A2AF75C932D
:100100006B6CF9676DC11BFCE0E40D47FEF520E662
:10011000B500D0ED902E0300943577050080841E45
:10012000080000204E0A000000C80C333333330FA0
:10013000986E12831141EF8D2114893BE65516CF3D
:10014000FEE6DB18D1844B381BF77C1D901DA4BB49
:10015000E424203284725E228100C9F124ECA1E5FE
:100160003D27200054534D3A494E49540A0021542A
:10017000534D3A494E49543A545350204641494C04
:100180000A0054534D3A494E49543A545350204F63
:100190004B0A0054534D3A465041520A00215453E1
:1001A0004D3A465041523A4E4F205245504C590A12
:1001B000002154534D3A465041523A4641494C0A67
:1001C0000054534D3A465041523A4F4B0A00545353
:1001D0004D3A49443A5245510A0054534D3A494424
:1001E0000A002154534D3A49443A4641494C0A00C9
:1001F00054534D3A49443A4F4B0A0054534D3A55E3
:10020000504C0A002154534D3A55504C3A464149FE
:100210004C0A0054534D3A55504C3A444757432CDE
:100220004F3D25752C4E3D25750A0054534D3A55CA
:10023000504C3A4F4B0A0054534D3A5245414459A1
:100240003A49443D25752C5041523D25752C444971
:10025000533D25750A002154534D3A5245414459A6
:100260003A55504C204641494C2C534E500A0054AC
:10027000534D3A4641494C3A4449530A0054534D70
:100280003A4641494C3A434E543D25750A00545371
:100290004D3A4641494C3A52452D494E49540A007F
:1002A0005453463A5349443A4F4B2C49443D2575E3
:1002B0000A00215453463A5349443A4641494C2C8A
:1002C00049443D25750A00215453463A5254453A53
:1002D0004E324E204641494C0A005453463A52543D
:1002E000453A4E324E204F4B0A00215453463A5263
:1002F00054453A46504152204143544956450A001C
:10030000215453463A534E443A544E520A004D43F8
:100310004F3A50494D3A4E4F4445205245473D25AE
:10032000750A00215453463A4D53473A52454C20E2
:100330004D53472C4E5245500A005453463A4D53A4
:10034000473A5243562043420A005453463A4D53CB
:10035000473A42430A005453463A4D53473A4143C1
:100360004B0A00215453463A4D53473A504F4E479B
:1003700020524543562C494E4143544956450A00A4
:100380005453463A4D53473A504F4E4720524543F7
:10039000562C48503D25750A005453463A4D534754
:1003A0003A50494E4745442C49443D25752C485008
:1003B0003D25750A00215453463A4D53473A46505D
:1003C000415220494E4143544956450A0054534630
:1003D0003A4D53473A46504152204F4B2C49443DE9
:1003E00025752C443D25750A00215453463A4D533A
:1003F000473A494420544B20494E56414C49440AFF
:10040000005453463A4D53473A41434B20524551CD
:100410000A00215453463A4D53473A505645522C00
:100420002575213D25750A00215453463A4D534701
:100430003A4C454E3D25752C4558503D25750A00D2
:100440005453463A4D53473A524541442C25752D55
:1004500025752D25752C733D25752C633D25752C33
:10046000743D25752C70743D25752C6C3D25752CBF
:1004700073673D25753A25730A0025735453463A30
:100480004D53473A53454E442C25752D25752D2542
:10049000752D25752C733D25752C633D25752C74A4
:1004A0003D25752C70743D25752C6C3D25752C7380
:1004B000673D25752C66743D25752C73743D257339
:1004C0003A25730A004D434F3A5245473A52455137
:1004D0000A005453463A504E473A53454E442C5422
:1004E0004F3D25750A00215453463A504E473A4134
:1004F00043544956450A005453463A434B553A46ED
:1005000041494C0A005453463A434B553A444757E5
:10051000432C4F3D25752C4E3D25750A00545346FE
:100520003A434B553A4F4B0A005453463A434B55C6
:100530003A4F4B2C464354524C0A005453463A54BB
:1005400044493A54534C0A005453463A5452493A97
:100550005453420A004D434F3A534C503A5755506A
:100560003D25690A004D434F3A534C503A4D533D97
:10057000256C750A00214D434F3A534C503A544E66
:10058000520A004D434F3A534C503A4D533D256C5F
:10059000752C534D533D25752C49313D25752C4DFA
:1005A000313D25752C49323D25752C4D323D257543
:1005B0000A00322E332E310A00207C5F5C2F602C23
:1005C0000A0702200220B287100340012000240203
:1005D00022100222020220022200222002022022F5
:1005E0002710134101010103222030402030520323
:1005F0004022140203105224022171010010101233
:100600001012221010022401010322030020010114
:1006100000322037121001213226012840322212E6
:1006200010121222432224121001222470C122240B
:100630000F0F5453463A5755523A4D533D256C755A
:100640000A004D434F3A42474E3A494E4954204FD3
:100650004B2C5453503D25750A004D434F3A4247A9
:100660004E3A5354500A004D434F3A42474E3A4295
:1006700046520A004D434F3A42474E3A494E49547A
:10068000204E4F44452C43503D524E4E4E412D2D51
:100690002D2C52454C3D25752C5645523D322E335E
:1006A0002E310A0000000000240027002A0000006C
:1006B0000000250028002B00000000002300260079
:1006C00029000404040404040404020202020202D5
:1006D0000303030303030102040810204080010206
:1006E0000408102001020408102000000008000285
:1006F0000100000304070000000000000000214D7D
:10070000434F3A534E443A4E4F4445204E4F5420A7
:100710005245470A0000901511241FBECFEFD8E0C4
:10072000DEBFCDBF11E0A0E0B1E0E8E9FFE302C029
:1007300005900D92AC37B107D9F723E0ACE7B1E0F3
:1007400001C01D92A531B207E1F713E0CCE8D3E078
:1007500004C02197FE010E94B51FCB38D107C9F70D
:100760000E94E3150C94CA1F0C940000942FE3ED33
:10077000F2E03091CF013183828366832583448107
:10078000487F492B477E4483CF010895833081F011
:1007900028F4813099F08230A9F008958730A9F0CB
:1007A0008830C9F08430B1F4809180008F7D03C01F
:1007B000809180008F7780938000089584B58F7733
:1007C00084BD089584B58F7DFBCF8091B0008F7775
:1007D0008093B00008958091B0008F7DF9CFCF93C2
:1007E000DF93ECEEF6E08491E8EDF6E0D491E4ECF2
:1007F000F6E0C491CC23A1F081110E94C603EC2F36
:10080000F0E0EE0FFF1FE854F94FA591B491EC9181
:10081000ED2381E090E009F480E0DF91CF9108952D
:1008200080E090E0FACF1F93CF93DF93282F30E042
:10083000F901E651F94F8491F901EA52F94FD49147
:10084000F901EE53F94FC491CC23A9F0162F811171
:100850000E94C603EC2FF0E0EE0FFF1FE255F94FA8
:10086000A591B4918FB7F894EC91111108C0D0956F
:10087000DE23DC938FBFDF91CF911F910895DE2B94
:10088000F8CFCF93DF9390E0FC01EA52F94F249127
:100890008E53994FFC0184918823D1F090E0880F0A
:1008A000991FFC01EC55F94FA591B491FC01E2555B
:1008B000F94FC591D49161110EC09FB7F8948C91F6
:1008C000E22FE0958E238C932881E223E8839FBF5B
:1008D000DF91CF9108958FB7F894EC91E22BEC93D0
:1008E0008FBFF6CF3FB7F894809196019091970112
:1008F000A0919801B091990126B5A89B05C02F3F02
:1009000019F00196A11DB11D3FBFBA2FA92F982F35
:100910008827BC01CD01620F711D811D911D43E02F
:10092000660F771F881F991F4A95D1F708958F92F8
:100930009F92AF92BF92CF92DF92EF92FF926B01A4
:100940007C010E9472044B015C01C114D104E104DA
:10095000F104B9F00E947204681979098A099B09A7
:10096000683E73408105910580F321E0C21AD108E9
:10097000E108F10888EE880E83E0981EA11CB11CE6
:10098000E4CFFF90EF90DF90CF90BF90AF909F901B
:100990008F9008952FB7F894609192017091930110
:1009A00080919401909195012FBF0895E82FF0E078
:1009B000882359F0813059F0EE0FFF1FE75CFE4F9E
:1009C00089EE94E0918380830895E898F5CFE998C3
:1009D000F3CF0895AF92BF92CF92DF92EF92FF9242
:1009E0000F931F93CF93DF936C017B018B01040F57
:1009F000151FEB015E01AE18BF08C017D10759F0F3
:100A00006991D601ED91FC910190F081E02DC60134
:100A10000995892B79F7C501DF91CF911F910F912E
:100A2000FF90EF90DF90CF90BF90AF900895FC01C2
:100A3000538D448D252F30E0842F90E0821B930B43
:100A4000541710F0CF96089501970895FC01918DE9
:100A5000828D981761F0A28DAE0FBF2FB11D5D96EC
:100A60008C91928D9F5F9F73928F90E008958FEF8E
:100A70009FEF0895FC01918D828D981731F0828D42
:100A8000E80FF11D858D90E008958FEF9FEF089599
:100A9000FC01918D228D892F90E0805C9F4F821BFD
:100AA00091098F739927089583ED91E00E9448057D
:100AB00021E0892B09F420E0822F0895FC01A48D08
:100AC000A80FB92FB11DA35ABF4F2C91848D90E070
:100AD00001968F739927848FA689B7892C93A08953
:100AE000B1898C91837080648C93938D848D9813DD
:100AF00006C00288F389E02D80818F7D8083089570
:100B0000EF92FF920F931F93CF93DF93EC0181E05D
:100B1000888F9B8D8C8D98131AC0E889F989808104
:100B200085FF15C09FB7F894EE89FF896083E88937
:100B3000F98980818370806480839FBF81E090E029
:100B4000DF91CF911F910F91FF90EF900895F62EB6
:100B50000B8D10E00F5F1F4F0F731127E02E8C8D50
:100B60008E110CC00FB607FCFACFE889F989808195
:100B700085FFF5CFCE010E945E05F1CFEB8DEC0F26
:100B8000FD2FF11DE35AFF4FF0829FB7F8940B8FB2
:100B9000EA89FB8980818062CFCF0F931F93CF9327
:100BA000DF938C01D0E0C0E0F801EC0FFD1F6491F1
:100BB000662341F083ED91E00E948005892B11F0BE
:100BC0002196F2CFCE01DF91CF911F910F91089521
:100BD000CF93DF93EC01888D8823B9F0AA89BB8974
:100BE000E889F9898C9185FD03C0808186FD0DC05F
:100BF0000FB607FCF7CF8C9185FFF2CF808185FF80
:100C0000EDCFCE010E945E05E9CFDF91CF9108952F
:100C100080E090E0892B29F00E94540581110C940A
:100C200000000895CF92DF92EF92FF920F931F93EF
:100C3000CF93DF93D0E0C0E0062F10E0E82EF12C38
:100C4000C017D1072CF5D12CC12CCE14DF04C4F46D
:100C500061E088E00E94130464E170E080E090E0CD
:100C60000E94970460E088E00E94130464E670E04C
:100C700080E090E00E9497048FEFC81AD80AE5CF71
:100C800064E670E080E090E00E9497042196D8CF5F
:100C9000DF91CF911F910F91FF90EF90DF90CF9058
:100CA0000895FC01838187708860838384818F71BC
:100CB000806284836783CF010895E0918001F09181
:100CC0008101309721F00280F381E02D099408958D
:100CD0000F931F930E94CA04009182011091830117
:100CE0002091840130918501601B710B820B930B65
:100CF0001F910F9108959C01809180019091810135
:100D000082179307F1F090918A019F7190938A0165
:100D10003093810120938001E0918001F091810165
:100D2000309721F00190F081E02D09950E94CA04CE
:100D30006093820170938301809384019093850175
:100D4000089580918A01805E80938A01E5CFCF93D8
:100D5000C82F83ED91E00E94E80580917A008F779B
:100D600080937A0020916000CF3F09F439C034E0CD
:100D7000C39FC00111248072C770C860C82B88E16E
:100D80000FB6F894A895809360000FBEC0936000E2
:100D90008091600080658093600083B7817F84606C
:100DA00083BFF89483B7816083BF85B7806685BFB2
:100DB0008F7D85BF7894889583B78E7F83BFF894A5
:100DC000A895809160008861809360002093600006
:100DD000789480917A00806880937A00CF9108950A
:100DE0000FB6F894A89580916000886180936000A8
:100DF000109260000FBED1CF8F929F92AF92BF92A0
:100E0000CF92DF92EF92FF92CF93DF936B017C0141
:100E10002FE0C20ED11CE11CF11CC1E0D0E080919A
:100E200032018F3FF9F480E1C816D104E104F104E6
:100E3000C8F089E094E0980F4E0102C0880C991C1C
:100E40009A95E2F7B12CA12CC814D904EA04FB044A
:100E500038F00E94A706C818D908EA08FB08DFCFB7
:100E60008150E8CFDF91CF91FF90EF90DF90CF904E
:100E7000BF90AF909F908F90089583B78E7F83BF70
:100E800080913001823010F40E94D60480913201AA
:100E90008F3F21F48091300180933201089583B710
:100EA0008E7F83BF80913101823010F40E94D6047E
:100EB000809132018F3F21F4809131018093320182
:100EC00008950F931F93CF93DF93EC018C8182954C
:100ED00086958770A9F44B8146954695469550E0D6
:100EE000BE01695F7F4F8CE991E00E94BB1FEB81DF
:100EF000E695E695E695F0E0E456FE4F108209C0CF
:100F0000813071F48F814AE06CE971E090E00E94D9
:100F100088178CE991E0DF91CF911F910F9108958F
:100F2000823031F44AE06CE971E08F819885EFCF2F
:100F3000833041F44AE06CE971E08F8198850E942A
:100F4000E117E7CF843051F46F81788589859A85E0
:100F50002AE04CE951E00E949317DBCF853051F431
:100F60006F81788589859A852AE04CE951E00E9455
:100F7000BF17CFCF873051F1ACE9B1E09E01295FB7
:100F80003F4F40E0EB81E695E695E6954E1780F5FC
:100F9000B901F9018081082E000C990B54E0959558
:100FA00087955A95E1F78F708A30F0F4805D8C93C5
:100FB0002F5F3F4FFB0180818F708A30B8F4805DD6
:100FC00011968C9311974F5F1296DCCF2B852930A9
:100FD00008F028E06F81788589859A850CE911E011
:100FE00042E00E94251795CF895CE1CF895CE8CF6C
:100FF000F0E0EE0FFF1F80CFFC0101900020E9F729
:101000003197AF01481B590BBC0183ED91E00C9463
:10101000EA040F931F93CF93DF93EC01E0E0611597
:10102000710551F0FB0101900020E9F73197E61BB3
:10103000F70BE931F10500F50E2F10E08B81877079
:10104000980193E0220F331F9A95E1F7822B8B834F
:101050008C818F718C83EE2329F0A801CE01079635
:101060000E94BB1FFE01E00FF11F1782CE01DF912E
:10107000CF911F910F910895E9E1DECFFC0124810A
:10108000229526952770213011F48781089521112A
:1010900004C007960E944317089580E0089590E5E4
:1010A0009CBD1DBC2A98E0E1F0E03197F1F78EBDC0
:1010B00000000DB407FEFDCF8EB5FB019FEF415040
:1010C000C8F0222361F09EBD00000DB407FEFDCFE5
:1010D0008EB56115710599F380833196F0CFDF01EC
:1010E000119680818EBD00000DB407FEFDCF8EB538
:1010F000FD01E5CF2A9AE0E1F0E03197F1F708959C
:10110000CF93DF931F92CDB7DEB7698320E041E034
:10111000BE016F5F7F4F0E944F080F90DF91CF910C
:10112000089529986EE080E20E94800884E293E2AC
:101130000197F1F7089529986CE080E20C948008FB
:101140006FE080E20E948008609119016F3F19F002
:101150008AE20E948008299A089521E041E070E027
:1011600060E00C944F0886E00E94AD08833231F4B1
:1011700085E00E94AD0891E08C3409F090E0892F61
:10118000089520E040E070E060E00C944F08CF92BA
:10119000DF92EF92FF920F931F93CF93DF93CDB720
:1011A000DEB7C857D1090FB6F894DEBF0FBECDBF6A
:1011B0000E94CA049B01AC0119A28E010F5D1F4F52
:1011C0008AE0C82ED12CE12CF12CCA01B901A7016B
:1011D00096010E94931F605DF80162938F012115B3
:1011E00031054105510589F7309719F0CF010E946B
:1011F000FC0782E691E00E94CD059E012B573F4FF0
:10120000CD57DF4F48815981C358D04068E770E01F
:10121000CE0101960E94FB17CE0101960E94FC07A9
:1012200083ED91E00E94E805C858DF4F0FB6F894AF
:10123000DEBF0FBECDBFDF91CF911F910F91FF9009
:10124000EF90DF90CF900895CF92DF92EF92FF92D0
:101250000F931F93CF93DF93082FEB018091CF0162
:1012600088834B8110E242FD05C046954695469520
:1012700017E0140FF090D2018F2D8170E82E29987D
:1012800080E091E00197F1F76EE080E20E94800833
:1012900084EC90E00197F1F7602F8AE20E948008C9
:1012A000602F80E30E94800881EE0E94C1080F3FFA
:1012B00011F080EAE11080EB412F113208F040E29A
:1012C00020E0BE010E944F08299AD12CC12C8FEF3B
:1012D0000E94C108182F807321F491E0C91AD10827
:1012E000B1F7299860E387E20E94800814FF03C0E9
:1012F00081EE0E94C1080E94A00815FF02C0FF24D1
:10130000F39481E00F3F09F080E01F2D1170182B3E
:101310008C818770833029F48D81EFE4F1E0813195
:1013200021F0CE010E946107FC016AE571E0112302
:1013300011F067E571E050918B015F709B8192FB2A
:10134000EE24E0F8492F4695469546959C81C92E96
:10135000C294C69487E0C822DD809770FE80BA816F
:10136000A88189812091D20120FD07C021E631E0CA
:10137000112329F02AE731E002C02FE531E0FF9385
:10138000EF937F936F931F925F931F92EF921F9241
:101390004F931F92CF921F92DF921F929F931F92A3
:1013A000FF921F92BF931F920F931F92AF931F92B2
:1013B0008F933F932F938AE794E09F938F930E949C
:1013C000C7088DB79EB74E960FB6F8949EBF0FBE56
:1013D0008DBF812FDF91CF911F910F91FF90EF90E3
:1013E000DF90CF9008950F931F93CF93DF938C01DD
:1013F000FC01828190918A0190FF12C08F3F09F415
:1014000043C08AEE92E09F938F930E94C7080F908B
:101410000F90C0E08C2FDF91CF911F910F91089515
:10142000D091D0018823D9F08F3F71F1B8010E948B
:101430002409C82F882349F08AED92E09F938F9367
:101440000E94C7080F900F90E5CF87EC92E09F9322
:101450008F930E94C708D091D0010F900F90B801D0
:101460008D2F0E942409C82F8091D0018D13D2CFD7
:1014700080918B01C1110AC091E0980F9F70807F0D
:10148000892B80938B01C6CFDFEFE9CF807F8093DC
:101490008B01C1E0BFCF20918A0122FD0C94F3099A
:1014A00080E093E09F938F930E94C7080F900F9066
:1014B00080E008951F93CF93DF93182F262FEA0122
:1014C00040E0682F80E00E94B6031F3F11F4C3E69E
:1014D000D1E0BE010E940908DF91CF911F910C94C9
:1014E0004B0AFC018091CF0181839481907F9160B0
:1014F000948380919B0180FF03C0CF010C944B0A21
:101500008EEF96E09F938F930E94C7080F900F90E5
:1015100080E00895FC0125812831E9F426812731F6
:10152000D1F40E943E0891E0811101C090E09093B7
:101530007D0180917302877088608093730280912F
:1015400074028F718062809374029093770280E7B7
:1015500092E00C94710A0895CF93C82F8FEF8C0FEF
:101560008E3F10F5C093CF01C093190163E082E272
:101570000E94800861E081E20E9480080E94A00829
:101580006C2F90E080E00E94301E1F92CF9380EA83
:1015900092E09F938F930E94C7080F900F900F9037
:1015A0000F9081E0CF9108951F92CF9382EB92E04C
:1015B0009F938F930E94C7088FEF8093CF010F9066
:1015C0000F900F900F9080E0EDCF2F923F924F92AF
:1015D0005F926F927F928F929F92AF92BF92CF92C3
:1015E000DF92EF92FF920F931F93CF93DF9380913F
:1015F0008A0184FB882480F884FF7AC236E0E32ED7
:1016000044244A945524539443E0642E42E0742EBB
:1016100050E8252E53E0352E87E10E94AD0880FD6D
:1016200067C2EA94EE2009F463C221E041E070E071
:1016300060E080E60E944F08082F813220F082EEA1
:101640000E94C10800E021E0402F64EF72E081E6D3
:101650000E944F0860E487E20E9480088091F702B0
:10166000F82EF694F694F69429E12F1510F429E15A
:10167000F22E97E0992E9F0C82FF02C080E2982EF6
:101680001091F8021770C091F902D091F502D09034
:10169000F402C090F602133021F48FE491E0C131DE
:1016A00021F084EF92E00E946107AF2CB12C9F9350
:1016B0008F938091F70282FB882780F91F928F9386
:1016C0001F92FF928091F8028295869587701F92F3
:1016D0008F931F92CF931F921F938091FA021F92B4
:1016E0008F931F92CF921F92DF921F92DF9380E41D
:1016F00094E09F938F930E94C7088DB79EB746963C
:101700000FB6F8949EBF0FBE8DBF901689F01F9242
:101710009F921F920F9388E294E09F938F930E9471
:10172000C7080F900F900F900F900F900F9074CFED
:101730002091F702822F8370823041F01F9292E055
:101740009F931F928F9382E194E0E7CF80918B016A
:10175000806880938B018091CF01C81289C1822F4C
:101760008695869586958A3108F089E138E0839FD1
:10177000C00111242770282B2093F702F501EC50AB
:10178000FD4F17828091F80283FF21C081E094E031
:101790009F938F930E94C70881E2E4EFF2E0A3EDEC
:1017A000B2E001900D928A95E1F78091D702877F90
:1017B00080618093D7028091CF018093D402D0932F
:1017C000D50283ED92E00E944B0A0F900F9090910A
:1017D000F80294FD44C1133009F039C18091F90237
:1017E00021EF280F233008F417CFC430B1F48091D3
:1017F000FA0290911A01891711F08F3F39F484EFA2
:1018000092E00E943E080E94AC0A06CF89EE93E067
:101810009F938F930E94C70868C1C83021F5C0917B
:101820008A01C0FF1DC084EF92E00E943E088F3FF6
:1018300009F4F2CE8F5F8F3F09F4EECE9091D10183
:10184000891708F0E9CEC1FDE7CE8093D101D0938E
:10185000D0011F928F931F92DF938DEC93E05DCFA9
:1018600085EB93E0D5CFC831D1F484EF92E00E94AC
:101870003E081F928F931F92DF9389E993E09F9315
:101880008F930E94C70829E143E06FEF8D2F0E94DC
:10189000B60361E00E9451060E94F30942CFC931AC
:1018A000E1F480918A0183FF14C0877F80938A01CD
:1018B00084EF92E00E943E0880938C011F928F93E8
:1018C0003F922F920E94C7080F900F900F900F9099
:1018D000A3CE83E693E09F939CCFCE3109F49CCEB8
:1018E000CD31B9F42FE143E06FEF80E00E94B60301
:1018F000FC0184818F71806484838381877080611F
:10190000838380E09FEF90878783CF010E94F30954
:1019100083CE2091F50221119FC08D3059F488E1CA
:1019200098E00FB6F894A895809360000FBE90934E
:101930006000FFCF8B31A9F484EF92E00E943E0853
:1019400091E0811101C090E080919B0190FB80F9B2
:1019500080939B011F929F932EE033E03F932F9340
:10196000B1CF8630A1F49091FB02882D992321F00C
:1019700081E09D3409F080E080939A0141E050E0DD
:1019800063E071E08AE991E00E94201E45CE833138
:1019900019F40E94761040CE8231D9F40E94680674
:1019A0005B016C0126E143E06FEF80E00E94B6032B
:1019B000FC0184818F71806A848383818770806257
:1019C0008383A782B086C186D286CF010E944B0A4C
:1019D00023CE8230A1F422E043E06FEF80E00E944A
:1019E000B603FC0184818F71806A84838381877050
:1019F000806283834782508661867286E6CF81301B
:101A000001F520E030E0232B09F406CE929596955F
:101A10009770953059F46091FB027091FC028091AF
:101A2000FD029091FE020E940000F6CD911105C0CA
:101A30008BEF92E00E946117F6CF60E070E0CB017F
:101A4000F2CF8A3009F4E8CD8C3109F4E5CD84EF8A
:101A500092E00E948A0AE0CD8A31C9F7DDCD86E5A1
:101A600093E09F938F930E94C7080F900F90EFCF42
:101A70003FEF83E293E0C3122ECF8AE493E09F937B
:101A80008F930E94C7080F900F90133001F580913B
:101A90008A0182FF03C0C73009F4BECDC43109F00A
:101AA000BBCD8091D001D812B7CD0E94CA0473700B
:101AB000882799270E94970425E143E06FEF8D2F37
:101AC0000E94B6036091D0010E9451061FCF809101
:101AD000D001D812A1CD8AE393E09F938F930E9407
:101AE000C70884EF92E00E948A0A0F900F9094CD6D
:101AF000DF91CF911F910F91FF90EF90DF90CF90EA
:101B0000BF90AF909F908F907F906F905F904F901D
:101B10003F902F900895CF92DF92EF92FF92CF9354
:101B2000DF93D82F0E94CA046B017C011092F90246
:101B3000C0E00E94CA046C197D098E099F09603DAE
:101B400077408105910590F4C11110C0A8950E94BD
:101B50005D060E94E50A8091F8028770833049F79C
:101B6000C1E08091F9028D13E3CFE3CF8C2FDF9199
:101B7000CF91FF90EF90DF90CF9008958F929F923A
:101B8000AF92BF92CF92DF92EF92FF924B015C0136
:101B90000E94CA046B017C010E94CA046C197D0971
:101BA0008E099F09681579058A059B0530F4A8956B
:101BB0000E945D060E94E50AEFCFFF90EF90DF9054
:101BC000CF90BF90AF909F908F9008956F927F922B
:101BD0008F929F92AF92BF92CF92DF92EF92FF923D
:101BE0000F931F93CF93DF930E94EF03EC0180913B
:101BF0003301909134018C179D0779F1D093340112
:101C0000C093330180918A0182FD0DC062E370E0D0
:101C100080E090E00E94BE0D80918A0182FB8827BF
:101C200080F98111FECF8091B6028F71806480931C
:101C3000B6028091B502877080618093B50281E021
:101C400090E0219711F090E080E09093BA028093A9
:101C5000B90282EB92E00E94710A80912B0120E48C
:101C6000829FC0011124816080937C0080917A0062
:101C7000806480937A0080917A0086FDFCCF809109
:101C8000780060917900762F682F072E000C880B62
:101C9000990B0E94F31C29E037E64CE55BE30E94B8
:101CA000521D6B017C0180902C0190902D01A09021
:101CB0002E01B0902F0126E636E646EE5FE30E9445
:101CC0008E1F18160CF097C023E333E343E550E46E
:101CD000C701B6010E94EC1C87FF8DC026E636E6E0
:101CE00046EE5FE3C701B6010E94791E20E030E0B6
:101CF00040EC5FE30E94E61E20E030E048EC52E456
:101D00000E94521D0E94581F70937F0160937E01B4
:101D1000A5019401C701B6010E94EC1C8823D1F0F3
:101D2000A5019401C701B6010E94791E4B015C0117
:101D300020E030E0A9010E948E1F18160CF071C03F
:101D40002DEC3CEC4CEC5DE3C501B4010E948E1F10
:101D500087FF72C01F928FEF8F931F928F931F92F6
:101D60008F931F928F931F921F921F921F9281E059
:101D70008F9384EF8F9383E895E09F938F930E94D6
:101D8000C70880918A012DB73EB7205F3F4F0FB63D
:101D9000F8943EBF0FBE2DBF44EFC42EDD24D39474
:101DA000E12CF12C82FD99C085E795E09F938F93FC
:101DB0000E94C7080E94CA046B017C010F900F901B
:101DC00080E090E0DC0120918A0122FD65C0843F23
:101DD0009140A105B10508F0B2C0A8950E945D062A
:101DE0000E94E50A0E94CA04DC01CB018C199D09FE
:101DF000AE09BF09E8CF26E636E646EE5FE3C70147
:101E0000B6010E94EC1C87FF05C010927F01109262
:101E10007E017ECF84E690E090937F0180937E01E7
:101E200077CF2DEC3CEC4CEC5DEBC501B4010E948E
:101E3000EC1C18160CF48ECFC0917E0120E043E01C
:101E40006FEF80E00E94B6036C2F0E9451060E9443
:101E50004B0A8091940287708862809394028091EB
:101E60009502806E80939502C0929802D09299025A
:101E7000E0929A02F0929B0282E080939C0281E9B8
:101E800092E00E94710AC0922C01D0922D01E09242
:101E90002E01F0922F015ECF843F21E09207A10531
:101EA000B10508F04CC054EFC52EDD24D394E12CCD
:101EB000F12CC81AD90AEA0AFB0AFF92EF92DF92C4
:101EC000CF9285E695E09F938F930E94C7080F906D
:101ED0000F900F900F900F900F908BE395E09F93D2
:101EE0008F930E94C7080E949B08C701B6010E94F9
:101EF000FC06809132010F900F908F3F09F469C06A
:101F0000809132019FEF90933201282F082E000C10
:101F1000330B3F938F9385E595E09F938F930E94BA
:101F2000C70888E495E09F938F930E94C7080E949A
:101F300091080F900F900F900F900F900F907724B3
:101F40007A946624639403E815E08BE3E82E85E039
:101F5000F82E9FE4A92E97E0B92EC5E5D5E028E438
:101F6000822E25E0922E35E7C32E35E0D32E0E9437
:101F7000EF0320913301309134018217930709F068
:101F80006AC01F927F921F927F921F926F921F9240
:101F90001F921F921F921F921F921F921F921F93B8
:101FA0000F930E94C70880918A012DB73EB7205F2A
:101FB0003F4F0FB6F8943EBF0FBE2DBF82FD0BC042
:101FC000DF92CF920E94C7080E94CA040F900F9020
:101FD000CECF8FEF97CFFF92EF920E94C7080E945B
:101FE0009B08F89410923101709230016CBAB09253
:101FF0003A01A0923901809169008C7F81608093C1
:102000006900E89A8FEF0E94A70680E00E94D6043C
:10201000809132010F900F908F3FD9F08091320163
:1020200070923201282F082E000C330B3F938F93B0
:10203000DF93CF930E94C7089F928F920E94C70898
:102040000E9491080F900F900F900F900F900F909B
:102050008ECF8FEFE5CFDF91CF911F910F91FF9042
:10206000EF90DF90CF90BF90AF909F908F907F9038
:102070006F9008952BE043E06FEF80E00E94B6037D
:102080006FE171E00E9409080E944B0A2CE043E0D6
:102090006FEF80E00E94B6036BE171E00E940908D7
:1020A0000E944B0A62E370E080E090E00E94BE0D67
:1020B00049E651E060E081E00E945A0A62E370E084
:1020C00080E090E00E94BE0D4EE651E06EE18EEFA2
:1020D0000E945A0A62E370E080E090E00E94BE0D28
:1020E00042E751E068E187E10C945A0A2FE043E0AF
:1020F0006FEF80E00E94B6036AE771E00E94090872
:10210000E3EDF2E0838187708061838384818F7146
:10211000806C848381E087831086CF010E944B0A04
:102120008FE00E948B0D4AE751E061E18FEF0E9442
:102130005A0A26E043E06FEF80E00E94B603609108
:10214000D0010E9451060E944B0A86E00E948B0D2E
:102150000C943A10CF9380919B0181FD27C00E947F
:10216000761085EC94E09F938F930E94C70880912E
:102170009B01816080939B010F900F90C4E02AE146
:1021800043E06FEF80E00E94B60362E00E945106D8
:102190000E944B0A8BE10E948B0D811102C0C1503D
:1021A00071F780919B01826080939B01CF9108958C
:1021B000CF92DF92EF92FF92CF93DF9361E088E0BE
:1021C0000E94410460E082E00E94410483E0809329
:1021D0002B0164E670E080E090E00E9497040E948A
:1021E000CA04C0908601D0908701E0908801F090E9
:1021F00089016C197D098E099F096031774281053B
:10220000910548F489E295E09F938F930E94C70857
:102210000F900F9094C080918A0183FBCC27C0F966
:1022200083FD5CC01F921F9282ED94E09F938F9379
:102230000E94C7080F900F900F900F908091CF01D0
:10224000811117C010928C0180918A01877F809341
:102250008A01C0918C01CF3F09F049C087EF94E01B
:102260009F938F930E94C70862E084E00E94120649
:10227000CFCF80918A01886080938A018FEF80930D
:102280008C0128E143E06FEF80E00E94B60361E03B
:102290000E9451060E94F3090E94CA046B017C014E
:1022A0001092F9020E94CA046C197D098E099F09D7
:1022B000603D77408105910538F6C111C5CF0E9478
:1022C000E50AA8958091F8028770833059F7C1E03C
:1022D0008091F902893131F3C0E0E4CF86EE94E0D9
:1022E0009F938F930E94C7080F900F90B7CF0E94C3
:1022F000CA0460938601709387018093880190934C
:1023000089018DE195E09F938F930E94C70880918A
:10231000D1010F900F908C1791F01F92CF931F92C5
:102320008F9385E095E09F938F930E94C708C09399
:10233000D1010F900F900F900F900F900F90809100
:102340008A0182FF04C061E082E00E94120628E157
:1023500042E067E180E00E94B6036AE771E00E9414
:1023600009080E944B0A68EE73E080E090E00E944A
:10237000BE0D80917D01882341F1D0E0C0E06FEF78
:10238000CE010E94301E2196CD39F1E0DF07B9F76A
:10239000809174028F7180648093740280917302C3
:1023A0008770806180937302109278021092770296
:1023B00080E792E00E94710AF0E0E0E0DF91CF91C7
:1023C000FF90EF90DF90CF900994DF91CF91FF9035
:1023D000EF90DF90CF9008950F931F930E946806AF
:1023E00020918B0120772037B9F000E117E220E03F
:1023F00030E0061717072807390798F48EE892E0AF
:102400009F938F930E94C7080F900F9085E391E0F0
:102410001F910F910C947B0600E61AEE20E030E04D
:10242000E8CF1F910F91089580918B01982F90779D
:10243000903759F0982F92959F709F5F9770929563
:10244000907F8F78892B80938B0180918B0182956F
:1024500087701F928F938DE792E09F938F930E94D6
:10246000C70880918A018B7F8F7E80938A018FE6D7
:1024700092E09F938F930E94C7088BE395E09F9310
:102480008F930E94C7088DB79EB708960FB6F89431
:102490009EBF0FBE8DBF0C949B0880918B018F70E7
:1024A000863060F086E592E09F938F930E94C70884
:1024B0000F900F9085E191E00C947B060895809138
:1024C000D1011F928F938091D0011F928F938091A1
:1024D000CF011F928F9387E392E09F938F930E9487
:1024E000C70880918A01846080938A0180918B0162
:1024F000807880938B01E0918F01F09190018DB7EE
:102500009EB708960FB6F8949EBF0FBE8DBF30974A
:1025100009F00994089580918C018F3F81F10E9408
:10252000CA04609386017093870180938801909319
:1025300089018BE292E09F938F930E94C70890914C
:102540008C018091D1010F900F909817A1F01F92EC
:102550009F931F928F9383E192E09F938F930E94AA
:10256000C70880918C018093D1010F900F900F903C
:102570000F900F900F9081E191E00C947B060E94E8
:102580006806613D774081059105B8F080918A0128
:10259000803618F48DE091E0F0CF84E092E09F93D4
:1025A0008F930E94C70880918A01877F80938A0158
:1025B0000F900F9085E191E0E0CF08958BEF91E0CF
:1025C0009F938F930E94C7088FEF80938C01EAE856
:1025D000F1E080818860808328E143E06FEF80E054
:1025E0000E94B60361E00E9451060F900F900C9478
:1025F000F3098091CF018F3F61F080EF91E09F93CD
:102600008F930E94C7080F900F908DE091E00C947B
:102610007B060E946806613D77408105910590F038
:1026200080918A01803618F489E091E0F0CF82EE43
:1026300091E09F938F930E94C7080F900F9085E0C1
:1026400091E0E5CF0895CF938AED91E09F938F932A
:102650000E94C7080F900F908091CF018F3F01F526
:102660000E94CA046F3FC9F060931A01C0911A0119
:102670008EEC91E09F938F930E94C70823E043E084
:102680006C2F80E00E94B6036AE771E00E9409089F
:102690000F900F90CF910C94F30910921A01E6CF8E
:1026A000CF9108950E946806613D774081059105AC
:1026B00020F480918A0181FF2FC08091D0018F3F4B
:1026C00089F081EC91E09F938F930E94C7088091DD
:1026D0008A018E7F80938A010F900F9089E091E0AC
:1026E0000C947B0680918A01803658F48DE991E044
:1026F0009F938F930E94C7080F900F9085E191E000
:10270000EFCF81EB91E09F938F930E94C7080F90CA
:102710000F9085E091E0E4CF089583E991E09F93E5
:102720008F930E94C708EAE8F1E08081897F816089
:102730008083EFECF1E08FEF8283818327E043E039
:102740006FEF0E94B6036AE771E00E9409080F90DC
:102750000F900C94F309CF93219A229A29982A9AE0
:10276000CFB7F89480917C01811127C0ECECF6E0A2
:102770008491E0EEF6E09491E82FF0E0EE0FFF1F79
:10278000EC55F94FA591B491EC91E92321F461E066
:102790008AE00E94130461E08AE00E9441048CB543
:1027A00080618CBD8CB580648CBD61E08DE00E9441
:1027B000410461E08BE00E94410480917C018F5FC5
:1027C00080937C01CFBF0E94910863E083E20E9466
:1027D00080086FE584E20E9480086CE485E20E9434
:1027E000800863E286E20E94800864E08DE30E9434
:1027F00080088DE10E94AD08843041F063E780E5F8
:102800000E94800864E08DE30E9480080E94B30863
:1028100081110BC08EE691E09F938F930E94C708B1
:102820000F900F9085E091E046C062E082E20E9446
:10283000800860E081E20E94800863E08CE30E94EF
:1028400080088FEF8093000120E045E060E071E0B8
:102850008BE20E944F0820E045E060E071E08AE2F0
:102860000E944F0820E045E060E071E080E30E94B4
:102870004F0882EE0E94C10881EE0E94C10860E705
:1028800087E20E94800882E891E09F938F930E94E4
:10289000C70880918A01806180938A018091D2016A
:1028A0008E7F8093D2018091CF010F900F908F3F48
:1028B00029F485E191E0CF910C947B060E94AC0A4B
:1028C0008111F7CFAFCF84E691E09F938F930E9461
:1028D000C708EAE8F1E08081877F8F7E80831092CD
:1028E00086011092870110928801109289010F9041
:1028F0000F9044E050E070E060E08FEC91E00C94C9
:10290000101E1F920F920FB60F9211242F933F9318
:102910008F939F93AF93BF93809192019091930176
:10292000A0919401B09195013091910126E0230F7F
:102930002D3758F50296A11DB11D2093910180936A
:10294000920190939301A0939401B093950180918B
:10295000960190919701A0919801B09199010196EB
:10296000A11DB11D8093960190939701A0939801AA
:10297000B0939901BF91AF919F918F913F912F910A
:102980000F900FBE0F901F90189529E8230F039604
:10299000A11DB11DD2CF1F920F920FB60F9211241D
:1029A0002F933F934F935F936F937F938F939F9357
:1029B000AF93BF93EF93FF93E0913B01F0913C0104
:1029C0000995FF91EF91BF91AF919F918F917F9169
:1029D0006F915F914F913F912F910F900FBE0F908C
:1029E0001F9018951F920F920FB60F9211242F93DC
:1029F0003F934F935F936F937F938F939F93AF9387
:102A0000BF93EF93FF93E0913901F0913A0109955B
:102A1000FF91EF91BF91AF919F918F917F916F91B6
:102A20005F914F913F912F910F900FBE0F901F908C
:102A300018951F920F920FB60F9211242F933F9368
:102A40004F935F936F937F938F939F93AF93BF93B6
:102A5000EF93FF9383ED91E00E945E05FF91EF916C
:102A6000BF91AF919F918F917F916F915F914F91A6
:102A70003F912F910F900FBE0F901F9018951F92AE
:102A80000F920FB60F9211242F938F939F93EF9372
:102A9000FF93E091E301F091E4018081E091E9018D
:102AA000F091EA0182FD1BC090818091EC018F5F63
:102AB0008F732091ED01821741F0E091EC01F0E07D
:102AC000ED52FE4F958F8093EC01FF91EF919F9116
:102AD0008F912F910F900FBE0F901F9018958081AE
:102AE000F4CF1F920F920FB60F9211240F900FBECA
:102AF0000F901F901895CF93DF93FC0110821182E5
:102B00001282148215821682DC0117968AE1ED0189
:102B100019928A95E9F782E08383DF91CF91089536
:102B2000E3EDF1E01382128288EE93E0A0E0B0E0E2
:102B300084839583A683B78381E491E09183808326
:102B400085EC90E09587848784EC90E09787868772
:102B500080EC90E0918B808B81EC90E0938B828B6A
:102B600082EC90E0958B848B86EC90E0978B868B43
:102B7000118E128E138E148E84EF92E00E947B15BC
:102B800083ED92E00E947B1582EB92E00E947B1520
:102B9000E2EBF2E081E0868380E1858381E992E0E7
:102BA0000E947B15E1E9F2E08EEF868386E2858361
:102BB00080E792E00E947B15E0E7F2E087E1868300
:102BC00088E185830895789484B5826084BD84B556
:102BD000816084BD85B5826085BD85B5816085BD18
:102BE00080916E00816080936E00109281008091D0
:102BF0008100826080938100809181008160809358
:102C00008100809180008160809380008091B1007C
:102C100084608093B1008091B00081608093B000A7
:102C200080917A00846080937A0080917A0082603B
:102C300080937A0080917A008E7F80937A008091D1
:102C40007A00806880937A001092C100A89580E095
:102C500090E0892B11F00E940000E091E301F091D7
:102C6000E40182E08083E091DF01F091E0011082D5
:102C7000E091E101F091E20187E680831092EB019F
:102C8000E091E701F091E80186E08083E091E501C1
:102C9000F091E601808180618083E091E501F0910F
:102CA000E601808188608083E091E501F091E60192
:102CB000808180688083E091E501F091E601808168
:102CC0008F7D8083C0E1D0E0F12CFE01F595E79582
:102CD000E754FA4FE491C0FFAAC0EF70E83008F063
:102CE000A8C0F0E0E754FA4FF4906F2D83ED91E027
:102CF0000E9480052196C23FD10539F782EB95E00D
:102D00000E94CD0588E791E00E94FC071F928FEF9B
:102D10008F9384E796E09F938F930E94C7088091DA
:102D20009B018D7F80939B010F900F900F900F90D0
:102D300080E090E0892B51F087E696E09F938F9397
:102D40000E94C7080E9400000F900F9041E050E0E1
:102D500063E071E08AE991E00E94101E6FEF81E06C
:102D600090E00E94301E80918B018F7880938B01C0
:102D7000109281011092800185E391E00E947B0610
:102D80008AEA90E19093900180938F011F921F92A5
:102D90001F921F9282E396E09F938F930E94C70831
:102DA0000E94CA040F900F900F900F900F900F90F9
:102DB0000E94CA040E945D060E94E50A80918A0171
:102DC00082FB882780F9A895882391F38AE596E00D
:102DD0009F938F930E94C7080E94D81090918A01F8
:102DE0000F900F9092FB882780F992FD0E94B30804
:102DF0001F928F9382E496E09F938F930E94C7085F
:102E0000A8950F900F900F900F90C0E0D0E0A8957C
:102E10000E945D060E94E50A0E94E60D2097B9F324
:102E20000E945405882399F30E940000F0CFE29598
:102E300054CF1BEF1E0F00E06F2D83ED91E00E9439
:102E400080050F5F0117C0F355CFEF920F931F93CB
:102E5000CF93DF93E80134E047FD34E1042E000C0A
:102E6000550B57FF03C0519541955109E32E022F91
:102E7000242FAE010E94011ACE01DF91CF911F9144
:102E80000F91EF900895FC0188279927E8942191EC
:102E90002032E9F3293010F02E30C8F32B3241F004
:102EA0002D3239F4689404C00E94B717820F911D27
:102EB000219120532A30C0F31EF4909581959F4FA5
:102EC00008951F93FC0199278827BC01E89411916C
:102ED0001032E9F3193010F01E30C8F31B3251F0F4
:102EE0001D3249F4689406C00E94A217610F711D3B
:102EF000811D911D119110531A30B0F33EF490953D
:102F00008095709561957F4F8F4F9F4F1F910895CA
:102F1000BB274A3031F4992322F4BDE29095819584
:102F20009F4F0C94E217BB272A3051F4992342F4A7
:102F3000BDE290958095709561957F4F8F4F9F4F23
:102F40000C94C017592F482F372F262F660F771F45
:102F5000881F991F660F771F881F991F620F731FA5
:102F6000841F951F660F771F881F991F08957AE0A9
:102F7000979F902D879F802D910D11240895BB2739
:102F8000FA01A62F6217710581059105330B30FBFD
:102F900066F0AA27660F771F881F991FAA1FA2171E
:102FA00010F0A21B63953850A9F7A05DAA3308F072
:102FB000A95DA19336F7B111B1931082CA010C94A7
:102FC0004E1CBB27FB015527AA27880F991FAA1F54
:102FD000A41710F0A41B83955051B9F7A05DAA3334
:102FE00008F0A95DA193009779F7B111B1931192FF
:102FF000CB010C944E1CAEE0B0E0E1E0F8E10C94A3
:10300000501E8C01FA018EE08C831A83098377FFAE
:1030100002C060E070E8615071097E836D83A90190
:10302000BF01CE0101960E9427184D815E8157FD98
:103030000AC02F813885421753070CF49A01020FFA
:10304000131FF80110822E96E4E00C946C1EABE086
:10305000B0E0EDE2F8E10C94421E7C013B018A01F4
:10306000FC0117821682838181FFC8C1CE010196BF
:103070005C01F7019381F30193FD859193FF8191A9
:103080003F01882309F453C1853239F493FD8591BA
:1030900093FF81913F01853229F4B70190E00E94AE
:1030A0005E1CE7CF912C212C312CFFE1F31538F079
:1030B0008B3211F190F4803209F1833229F137FC1F
:1030C0003CC020ED280F2A3050F536FE20C08AE0A3
:1030D000989E200D1124922E06C08D3291F08033DF
:1030E00071F7689430F8F30193FD859193FF819116
:1030F0003F018111DACF21C0689431F8689432F829
:10310000F2CF689433F8EFCF689434F8ECCFEAE06C
:103110002E9E200D1124222E689435F8E4CF8E3295
:1031200029F436FC04C1689436F8DDCF8C3619F4E6
:10313000689437F8D8CF8836B1F2982F9F7D955490
:103140009330E0F08336A1F18337C1F1833509F084
:1031500063C02801F2E04F0E511CF801C080D180FD
:10316000692D70E036FC02C06FEF7FEFC6010E9450
:10317000381C4C01689437F882010AC00C5F1F4F5D
:10318000FFE3F98388248394912C6501E89437F850
:1031900033FE2DC0522C8114910471F5552009F491
:1031A00068CFB70180E290E00E945E1C5A94F6CF8F
:1031B000F801808189830E5F1F4FE4CF2801F2E080
:1031C0004F0E511CF801C080D180692D70E036FC93
:1031D00002C06FEF7FEFC6010E94431C4C018201C9
:1031E000D5CFB70180E290E00E945E1C2A9428149B
:1031F000190409F0B0F7CECFF60137FC859137FE00
:1032000081916F01B70190E00E945E1C51105A94A9
:10321000F1E08F1A9108BFCF843619F0893609F092
:1032200077C0F80137FE6BC0608171818281938124
:103230000C5F1F4FF32DFF763F2E97FF09C090952F
:103240008095709561957F4F8F4F9F4F689437F8A9
:103250002AE030E0A5010E948E1CC82ECA188C2CD2
:10326000432C36FE0CC0E89440F8C91440F434FEF8
:1032700005C032FC03C0F32DFE7E4F2E892C44FE88
:1032800095C0FE01EC0DF11D8081803309F087C0EF
:10329000242D297E422E842D8870582E43FC95C003
:1032A00040FE8FC09C2C821418F42C0C922C981881
:1032B00044FE91C0B70180E390E00E945E1C42FE94
:1032C00009C088E790E041FE02C088E590E0B701C0
:1032D0000E945E1CC91408F48AC0CA94D12C9FEFC6
:1032E000C91AD90ACA0CDB1CF60182916F01B70119
:1032F00090E00E945E1CAC14BD04B1F74FCF60811A
:103300007181072E000C880B990B0E5F1F4F92CF17
:10331000D32CE894D4F82AE030E0853739F1232D16
:10332000297FD22E8F3601F148F48835A9F0F701B4
:10333000868197812B96E2E10C945E1E803749F0DE
:103340008837A9F7D4FE02C06894D2F820E130E0B3
:103350000DC06894D4F8F6CF34FE03C0822F866087
:10336000D82E20E132E002C028E030E0F801D7FE9C
:103370000FC060817181828193810C5F1F4FA50115
:103380000E948E1CC82ECA183D2CE89437F867CFCF
:103390006081718190E080E00E5F1F4FF0CF42FCB2
:1033A00002C0839478CF8394839475CF842D8678DC
:1033B00009F471CFF6CFB70180E290E00E945E1C65
:1033C00083948214C0F3512C73CF522C581882145A
:1033D00008F46ECFF8CF842D867809F47BCF8BE28A
:1033E00041FE80E247FC8DE2B70190E071CFB7016A
:1033F00080E390E00E945E1C9A946CCF8FEF9FEF69
:1034000099CFA9E0B0E0E7E0FAE10C94481E6A0128
:10341000F22EB02E102FFBE3AF2EA01608F41BE304
:103420001F5F012F27E0AE014F5F5F4F0E94601BBF
:10343000BC018981982F9970913009F43FC09BE2BB
:10344000E1FC04C09E2D9170E0FC3AC05E2D5071ED
:10345000E82FE87083FF46C084E0911101C083E04B
:10346000EF2DE81B8F1508F0E0E0D6018E2F20E24B
:10347000552351F1992329F0D6019C93C601019659
:103480006C0196012D5F3F4FE2FE24C08EE4D60111
:103490008C9391E411969C93119712968C93D90179
:1034A0008E2F90E281111BC0E20FF32FF11D1082CD
:1034B0008EEF9FEF2996ECE00C94641E9DE2C6CF40
:1034C00090E2C4CF2D9381508111FCCFCE0ED11C40
:1034D000E0E0D0CF8EE6D6018C9391E6DBCF9D93D2
:1034E0008150E0CF482F447082FF3DC084E09111AD
:1034F00001C083E08F1510F4EF2DE81BD6018E2F4D
:1035000020E2552309F1992329F0D6019C93C601A5
:1035100001966C0196012D5F3F4FE2FE1BC089E4CE
:10352000D6018C938EE411968C93119786E41296B3
:103530008C93D9018E2F90E2882309F4B5CF9D9307
:103540008150FACF2D9381508111FCCFCE0ED11C2A
:10355000E0E0D9CF89E6D6018C938EE611968C9364
:10356000119786E6E4CF9B0177FF02C030E020E0B0
:10357000A1E0B0E0911102C0B0E0A0E0F901319605
:10358000AE0FBF1F8B2C912CBB2009F461C05401DE
:10359000EFEFAE1ABE0AAA0DBB1DFA161B0619F0F4
:1035A00014F04F2D4A1B511188C0E3FC59C076011D
:1035B000A42FB0E2A1114FC0C40ED11C992309F46D
:1035C0005BC040E0D6011196F60190836D01552352
:1035D00009F448C0012F060F9A81582F507184FFBB
:1035E00003C0913309F4015010160CF047C00930A4
:1035F00008F008E0EEE2FE2E5B01A01AB10885019A
:103600009194819491082F3F320729F4D601FC92BE
:10361000F60131966F016217730794F102171307D1
:103620007CF5DB01A21BB30BAA24A394B12CAC0E36
:10363000BD1EAA0DBB1D11968C9121503109D601DA
:10364000119628153905F4F0F60180836D01DBCF62
:10365000B12CA12CA0CFF701B1937F01A150AACF2B
:103660009111B0CFD601942F50E302C05D939150D9
:103670009111FCCFC40ED11C40E0ACCF01E0BACF19
:1036800080E3DBCF6217730731F4963388F4953308
:1036900011F4552369F0F6018083FD01842F90E237
:1036A000811108C0A40FB11D1C9290E080E002CFF0
:1036B00081E3F1CF91938150F3CF911183CF8ACFE2
:1036C000283008F027E03327DA01990F311D87FDF4
:1036D000916000966105710539F432602E5F3D936B
:1036E00030E32A95E1F708959F3F30F08038710567
:1036F000610509F03C5F3C5F3D93913008F08068C4
:10370000911DDF93CF931F930F93FF92EF92192F89
:10371000987F9695E92F96959695E90FFF27EE539A
:10372000FF4F99273327EE24FF24A701E7010590D7
:103730000894079428F4360FE71EF81E491F511D00
:10374000660F771F881F991F0694A1F705900794AD
:1037500028F4E70EF81E491F561FC11D770F881F5A
:10376000991F661F0694A1F70590079428F4F80E98
:10377000491F561FC71FD11D880F991F661F771F2E
:103780000694A1F70590079420F4490F561FC71F10
:10379000D81F990F661F771F881F0694A9F7849179
:1037A0001095177041F0D695C79557954795F794A2
:1037B000E7941A95C1F7E8E6F0E068941590159142
:1037C00035916591959105907FE27395E118F10A25
:1037D000430B560BC90BD009C0F7E10CF11E431F78
:1037E000561FC91FD01D7EF4703311F48A95E6CFA1
:1037F000E894015030F0080F0AF40027021708F48B
:10380000202F2395022F7A3328F079E37D932A9590
:10381000E9F710C07D932A9589F6069497956795E8
:10382000379517951794E118F10A430B560BC90BFE
:10383000D00998F023957E9173957A3308F070E360
:103840007C932013B8F77E9170617D9330F083955F
:1038500071E37D9370E32A95E1F71124EF90FF90D7
:103860000F911F91CF91DF91992787FD9095089532
:10387000FC010590615070400110D8F7809590953B
:103880008E0F9F1F0895FC01615070400190011040
:10389000D8F7809590958E0F9F1F0895DC01FC014D
:1038A000672F71917723E1F7329704C07C916D9374
:1038B00070836291AE17BF07C8F308950F931F93EB
:1038C000CF93DF93182F092FEB018B8181FD09C066
:1038D0001FEF0FEF812F902FDF91CF911F910F914D
:1038E000089582FF14C02E813F818C819D8128170D
:1038F00039073CF4E881F981CF01019699838883E7
:1039000010838E819F8101969F838E83E3CFE8850C
:10391000F985812F0995892BA1F3DACFFA01AA271E
:10392000283051F1203181F1E8946F936E7F6E5F02
:103930007F4F8F4F9F4FAF4FB1E03ED0B4E03CD0B0
:10394000670F781F891F9A1FA11D680F791F8A1F93
:10395000911DA11D6A0F711D811D911DA11D20D0FA
:1039600009F468943F912AE0269F11243019305DB4
:103970003193DEF6CF010895462F4770405D4193A5
:10398000B3E00FD0C9F7F6CF462F4F70405D4A33F2
:1039900018F0495D31FD4052419302D0A9F7EACFBA
:1039A000B4E0A6959795879577956795BA95C9F7E9
:1039B00000976105710508959B01AC010A2E0694DC
:1039C0005795479537952795BA95C9F7620F731F95
:1039D000841F951FA01D08950E942E1D08F481E0EC
:1039E0000895E89409C097FB3EF4909580957095F2
:1039F00061957F4F8F4F9F4F9923A9F0F92F96E93B
:103A0000BB279395F695879577956795B795F111AF
:103A1000F8CFFAF4BB0F11F460FF1BC06F5F7F4F4C
:103A20008F4F9F4F16C0882311F096E911C077235E
:103A300021F09EE8872F762F05C0662371F096E867
:103A4000862F70E060E02AF09A95660F771F881F36
:103A5000DAF7880F9695879597F90895990F0008DA
:103A6000550FAA0BE0E8FEEF16161706E807F90750
:103A7000C0F012161306E407F50798F0621B730BEB
:103A8000840B950B39F40A2661F0232B242B252B6C
:103A900021F408950A2609F4A140A6958FEF811D0F
:103AA000811D08950E94651D0C94D61D0E94C81D9D
:103AB00038F00E94CF1D20F0952311F00C94BF1D0B
:103AC0000C94C51D11240C940A1E0E94E71D70F36E
:103AD000959FC1F3950F50E0551F629FF001729FB3
:103AE000BB27F00DB11D639FAA27F00DB11DAA1FC2
:103AF000649F6627B00DA11D661F829F2227B00D0F
:103B0000A11D621F739FB00DA11D621F839FA00D99
:103B1000611D221F749F3327A00D611D231F849FE9
:103B2000600D211D822F762F6A2F11249F57504040
:103B30009AF0F1F088234AF0EE0FFF1FBB1F661FBB
:103B4000771F881F91505040A9F79E3F510580F084
:103B50000C94BF1D0C940A1E5F3FE4F3983ED4F30F
:103B6000869577956795B795F795E7959F5FC1F728
:103B7000FE2B880F911D9695879597F9089597F9D3
:103B80009F6780E870E060E008959FEF80EC089503
:103B900000240A941616170618060906089500242C
:103BA0000A9412161306140605060895092E0394A6
:103BB000000C11F4882352F0BB0F40F4BF2B11F41A
:103BC00060FF04C06F5F7F4F8F4F9F4F089557FD79
:103BD0009058440F551F59F05F3F71F04795880F7B
:103BE00097FB991F61F09F3F79F087950895121612
:103BF00013061406551FF2CF4695F1DF08C01616BE
:103C000017061806991FF1CF86957105610508946E
:103C10000895E894BB2766277727CB0197F9089585
:103C2000DC01CB01FC01F999FECF06C0F2BDE1BD7C
:103C3000F89A319600B40D9241505040B8F708956B
:103C4000DC01A40FB51F4150504048F0CB01840F58
:103C5000951F2E910E94311E41505040D0F708957B
:103C6000262FF999FECF92BD81BDF89A019700B435
:103C7000021639F01FBA20BD0FB6F894FA9AF99AD5
:103C80000FBE08952F923F924F925F926F927F9254
:103C90008F929F92AF92BF92CF92DF92EF92FF925C
:103CA0000F931F93CF93DF93CDB7DEB7CA1BDB0B08
:103CB0000FB6F894DEBF0FBECDBF09942A883988AD
:103CC00048885F846E847D848C849B84AA84B984B4
:103CD000C884DF80EE80FD800C811B81AA81B981C0
:103CE000CE0FD11D0FB6F894DEBF0FBECDBFED01D4
:103CF00008955058BB27AA270E94911E0C94D61DE8
:103D00000E94C81D38F00E94CF1D20F039F49F3F5B
:103D100019F426F40C94C51D0EF4E095E7FB0C9401
:103D2000BF1DE92F0E94E71D58F3BA1762077307FA
:103D30008407950720F079F4A6F50C94091E0EF47B
:103D4000E0950B2EBA2FA02D0B01B90190010C01AB
:103D5000CA01A0011124FF27591B99F0593F50F4C3
:103D6000503E68F11A16F040A22F232F342F44271B
:103D7000585FF3CF469537952795A795F040539513
:103D8000C9F77EF41F16BA0B620B730B840BBAF0E3
:103D90009150A1F0FF0FBB1F661F771F881FC2F74E
:103DA0000EC0BA0F621F731F841F48F48795779562
:103DB0006795B795F7959E3F08F0B0CF9395880F1C
:103DC00008F09927EE0F9795879508950E94FA1E9F
:103DD0000C94D61D0E94CF1D58F00E94C81D40F0C3
:103DE00029F45F3F29F00C94BF1D51110C940A1E59
:103DF0000C94C51D0E94E71D68F39923B1F3552368
:103E000091F3951B550BBB27AA27621773078407ED
:103E100038F09F5F5F4F220F331F441FAA1FA9F383
:103E200035D00E2E3AF0E0E832D091505040E69571
:103E3000001CCAF72BD0FE2F29D0660F771F881FD2
:103E4000BB1F261737074807AB07B0E809F0BB0BC5
:103E5000802DBF01FF2793585F4F3AF09E3F5105D9
:103E600078F00C94BF1D0C940A1E5F3FE4F3983E5B
:103E7000D4F3869577956795B795F7959F5FC9F7C2
:103E8000880F911D9695879597F90895E1E0660F43
:103E9000771F881FBB1F621773078407BA0720F0BC
:103EA000621B730B840BBA0BEE1F88F7E095089525
:103EB0000E945F1F6894B1110C940A1E08950E941D
:103EC000EF1D88F09F5798F0B92F9927B751B0F0A0
:103ED000E1F0660F771F881F991F1AF0BA95C9F78E
:103EE00014C0B13091F00E94091EB1E008950C9405
:103EF000091E672F782F8827B85F39F0B93FCCF3B8
:103F0000869577956795B395D9F73EF4909580950A
:103F1000709561957F4F8F4F9F4F08950E942E1D82
:103F200008F48FEF0895A1E21A2EAA1BBB1BFD0116
:103F30000DC0AA1FBB1FEE1FFF1FA217B307E40788
:103F4000F50720F0A21BB30BE40BF50B661F771FE0
:103F5000881F991F1A9469F76095709580959095C0
:103F60009B01AC01BD01CF010895EE0FFF1F05902D
:103F7000F491E02D0994FB01DC014150504048F0E0
:103F800001900D920020C9F701C01D924150504090
:083F9000E0F70895F894FFCF5B
:103F980000FCE1A8A81412EC112313F912DE128B0D
:103FA800125F124D128D135213FFFF312E31004450
:103FB8006F6F722053656E736F7200013333534015
:103FC800FFFFFFFFFF6314AB13E904E904000000DF
:103FD800008005EA041705E805480526053A053C6A
:103FE8004E4F4E43453E004F4B004E41434B003F22
:103FF800002100322E332E3100444F4F52005663B9
:0C4008006300456D707974000D0A000023
:00000001FF
